{
  "_format": "hh-sol-artifact-1",
  "contractName": "Token",
  "sourceName": "contracts/token.sol",
  "abi": [
    {
      "inputs": [],
      "stateMutability": "nonpayable",
      "type": "constructor"
    },
    {
      "anonymous": false,
      "inputs": [
        {
          "indexed": true,
          "internalType": "address",
          "name": "depositor",
          "type": "address"
        },
        {
          "indexed": false,
          "internalType": "uint256",
          "name": "amount",
          "type": "uint256"
        }
      ],
      "name": "TokenDeposit",
      "type": "event"
    },
    {
      "anonymous": false,
      "inputs": [
        {
          "indexed": true,
          "internalType": "address",
          "name": "depositor",
          "type": "address"
        },
        {
          "indexed": false,
          "internalType": "uint256",
          "name": "amount",
          "type": "uint256"
        },
        {
          "indexed": false,
          "internalType": "uint256",
          "name": "interest",
          "type": "uint256"
        }
      ],
      "name": "TokenWithdraw",
      "type": "event"
    },
    {
      "anonymous": false,
      "inputs": [
        {
          "indexed": true,
          "internalType": "address",
          "name": "_from",
          "type": "address"
        },
        {
          "indexed": true,
          "internalType": "address",
          "name": "_to",
          "type": "address"
        },
        {
          "indexed": false,
          "internalType": "uint256",
          "name": "_value",
          "type": "uint256"
        }
      ],
      "name": "Transfer",
      "type": "event"
    },
    {
      "inputs": [
        {
          "internalType": "address",
          "name": "account",
          "type": "address"
        }
      ],
      "name": "balanceOf",
      "outputs": [
        {
          "internalType": "uint256",
          "name": "",
          "type": "uint256"
        }
      ],
      "stateMutability": "view",
      "type": "function"
    },
    {
      "inputs": [
        {
          "internalType": "uint256",
          "name": "amount",
          "type": "uint256"
        }
      ],
      "name": "deposit",
      "outputs": [],
      "stateMutability": "nonpayable",
      "type": "function"
    },
    {
      "inputs": [
        {
          "internalType": "address",
          "name": "",
          "type": "address"
        }
      ],
      "name": "deposits",
      "outputs": [
        {
          "internalType": "uint256",
          "name": "amount",
          "type": "uint256"
        },
        {
          "internalType": "uint256",
          "name": "timestamp",
          "type": "uint256"
        }
      ],
      "stateMutability": "view",
      "type": "function"
    },
    {
      "inputs": [
        {
          "internalType": "address",
          "name": "account",
          "type": "address"
        }
      ],
      "name": "earnedInterest",
      "outputs": [
        {
          "internalType": "uint256",
          "name": "",
          "type": "uint256"
        }
      ],
      "stateMutability": "view",
      "type": "function"
    },
    {
      "inputs": [],
      "name": "name",
      "outputs": [
        {
          "internalType": "string",
          "name": "",
          "type": "string"
        }
      ],
      "stateMutability": "view",
      "type": "function"
    },
    {
      "inputs": [],
      "name": "owner",
      "outputs": [
        {
          "internalType": "address",
          "name": "",
          "type": "address"
        }
      ],
      "stateMutability": "view",
      "type": "function"
    },
    {
      "inputs": [],
      "name": "symbol",
      "outputs": [
        {
          "internalType": "string",
          "name": "",
          "type": "string"
        }
      ],
      "stateMutability": "view",
      "type": "function"
    },
    {
      "inputs": [],
      "name": "totalSupply",
      "outputs": [
        {
          "internalType": "uint256",
          "name": "",
          "type": "uint256"
        }
      ],
      "stateMutability": "view",
      "type": "function"
    },
    {
      "inputs": [
        {
          "internalType": "address",
          "name": "to",
          "type": "address"
        },
        {
          "internalType": "uint256",
          "name": "amount",
          "type": "uint256"
        }
      ],
      "name": "transfer",
      "outputs": [],
      "stateMutability": "nonpayable",
      "type": "function"
    },
    {
      "inputs": [],
      "name": "withdraw",
      "outputs": [],
      "stateMutability": "nonpayable",
      "type": "function"
    }
  ],
  "bytecode": "0x60806040526040518060400160405280601081526020017f4d79204861726468617420546f6b656e0000000000000000000000000000000081525060009081610048919061037e565b506040518060400160405280600381526020017f4d485400000000000000000000000000000000000000000000000000000000008152506001908161008d919061037e565b50620f42406002553480156100a157600080fd5b50600254600460003373ffffffffffffffffffffffffffffffffffffffff1673ffffffffffffffffffffffffffffffffffffffff1681526020019081526020016000208190555033600360006101000a81548173ffffffffffffffffffffffffffffffffffffffff021916908373ffffffffffffffffffffffffffffffffffffffff160217905550610450565b600081519050919050565b7f4e487b7100000000000000000000000000000000000000000000000000000000600052604160045260246000fd5b7f4e487b7100000000000000000000000000000000000000000000000000000000600052602260045260246000fd5b600060028204905060018216806101af57607f821691505b6020821081036101c2576101c1610168565b5b50919050565b60008190508160005260206000209050919050565b60006020601f8301049050919050565b600082821b905092915050565b60006008830261022a7fffffffffffffffffffffffffffffffffffffffffffffffffffffffffffffffff826101ed565b61023486836101ed565b95508019841693508086168417925050509392505050565b6000819050919050565b6000819050919050565b600061027b6102766102718461024c565b610256565b61024c565b9050919050565b6000819050919050565b61029583610260565b6102a96102a182610282565b8484546101fa565b825550505050565b600090565b6102be6102b1565b6102c981848461028c565b505050565b5b818110156102ed576102e26000826102b6565b6001810190506102cf565b5050565b601f82111561033257610303816101c8565b61030c846101dd565b8101602085101561031b578190505b61032f610327856101dd565b8301826102ce565b50505b505050565b600082821c905092915050565b600061035560001984600802610337565b1980831691505092915050565b600061036e8383610344565b9150826002028217905092915050565b6103878261012e565b67ffffffffffffffff8111156103a05761039f610139565b5b6103aa8254610197565b6103b58282856102f1565b600060209050601f8311600181146103e857600084156103d6578287015190505b6103e08582610362565b865550610448565b601f1984166103f6866101c8565b60005b8281101561041e578489015182556001820191506020850194506020810190506103f9565b8683101561043b5784890151610437601f891682610344565b8355505b6001600288020188555050505b505050505050565b6112a28061045f6000396000f3fe608060405234801561001057600080fd5b506004361061009e5760003560e01c80638da5cb5b116100665780638da5cb5b1461014957806395d89b4114610167578063a9059cbb14610185578063b6b55f25146101a1578063fc7e286d146101bd5761009e565b806306fdde03146100a357806318160ddd146100c15780633ccfd60b146100df5780635d948c35146100e957806370a0823114610119575b600080fd5b6100ab6101ee565b6040516100b89190610c20565b60405180910390f35b6100c961027c565b6040516100d69190610c5b565b60405180910390f35b6100e7610282565b005b61010360048036038101906100fe9190610cd9565b610494565b6040516101109190610c5b565b60405180910390f35b610133600480360381019061012e9190610cd9565b610566565b6040516101409190610c5b565b60405180910390f35b6101516105af565b60405161015e9190610d15565b60405180910390f35b61016f6105d5565b60405161017c9190610c20565b60405180910390f35b61019f600480360381019061019a9190610d5c565b610663565b005b6101bb60048036038101906101b69190610d9c565b61081e565b005b6101d760048036038101906101d29190610cd9565b610a7a565b6040516101e5929190610dc9565b60405180910390f35b600080546101fb90610e21565b80601f016020809104026020016040519081016040528092919081815260200182805461022790610e21565b80156102745780601f1061024957610100808354040283529160200191610274565b820191906000526020600020905b81548152906001019060200180831161025757829003601f168201915b505050505081565b60025481565b6000600560003373ffffffffffffffffffffffffffffffffffffffff1673ffffffffffffffffffffffffffffffffffffffff168152602001908152602001600020604051806040016040529081600082015481526020016001820154815250509050600081600001511161032b576040517f08c379a000000000000000000000000000000000000000000000000000000000815260040161032290610e9e565b60405180910390fd5b600081602001514261033d9190610eed565b9050600061012c8261034f9190610f50565b90506000606482600286600001516103679190610f81565b6103719190610f81565b61037b9190610f50565b9050600081856000015161038f9190610fc3565b9050600560003373ffffffffffffffffffffffffffffffffffffffff1673ffffffffffffffffffffffffffffffffffffffff1681526020019081526020016000206000808201600090556001820160009055505080600460003373ffffffffffffffffffffffffffffffffffffffff1673ffffffffffffffffffffffffffffffffffffffff16815260200190815260200160002060008282546104329190610fc3565b925050819055503373ffffffffffffffffffffffffffffffffffffffff167fa50d41d074ce94f4240b13344e911203e7a2169e7f09812a0d70a882e7c633c7866000015184604051610485929190610dc9565b60405180910390a25050505050565b600080600560008473ffffffffffffffffffffffffffffffffffffffff1673ffffffffffffffffffffffffffffffffffffffff168152602001908152602001600020604051806040016040529081600082015481526020016001820154815250509050600081600001510361050d576000915050610561565b600081602001514261051f9190610eed565b9050600061012c826105319190610f50565b9050606481600285600001516105479190610f81565b6105519190610f81565b61055b9190610f50565b93505050505b919050565b6000600460008373ffffffffffffffffffffffffffffffffffffffff1673ffffffffffffffffffffffffffffffffffffffff168152602001908152602001600020549050919050565b600360009054906101000a900473ffffffffffffffffffffffffffffffffffffffff1681565b600180546105e290610e21565b80601f016020809104026020016040519081016040528092919081815260200182805461060e90610e21565b801561065b5780601f106106305761010080835404028352916020019161065b565b820191906000526020600020905b81548152906001019060200180831161063e57829003601f168201915b505050505081565b80600460003373ffffffffffffffffffffffffffffffffffffffff1673ffffffffffffffffffffffffffffffffffffffff1681526020019081526020016000205410156106e5576040517f08c379a00000000000000000000000000000000000000000000000000000000081526004016106dc90611043565b60405180910390fd5b61070960405180606001604052806024815260200161124960249139338484610a9e565b80600460003373ffffffffffffffffffffffffffffffffffffffff1673ffffffffffffffffffffffffffffffffffffffff16815260200190815260200160002060008282546107589190610eed565b9250508190555080600460008473ffffffffffffffffffffffffffffffffffffffff1673ffffffffffffffffffffffffffffffffffffffff16815260200190815260200160002060008282546107ae9190610fc3565b925050819055508173ffffffffffffffffffffffffffffffffffffffff163373ffffffffffffffffffffffffffffffffffffffff167fddf252ad1be2c89b69c2b068fc378daa952ba7f163c4a11628f55a4df523b3ef836040516108129190610c5b565b60405180910390a35050565b60008111610861576040517f08c379a0000000000000000000000000000000000000000000000000000000008152600401610858906110af565b60405180910390fd5b80600460003373ffffffffffffffffffffffffffffffffffffffff1673ffffffffffffffffffffffffffffffffffffffff1681526020019081526020016000205410156108e3576040517f08c379a00000000000000000000000000000000000000000000000000000000081526004016108da9061111b565b60405180910390fd5b6000600560003373ffffffffffffffffffffffffffffffffffffffff1673ffffffffffffffffffffffffffffffffffffffff1681526020019081526020016000206000015414610968576040517f08c379a000000000000000000000000000000000000000000000000000000000815260040161095f906111ad565b60405180910390fd5b80600460003373ffffffffffffffffffffffffffffffffffffffff1673ffffffffffffffffffffffffffffffffffffffff16815260200190815260200160002060008282546109b79190610eed565b92505081905550604051806040016040528082815260200142815250600560003373ffffffffffffffffffffffffffffffffffffffff1673ffffffffffffffffffffffffffffffffffffffff16815260200190815260200160002060008201518160000155602082015181600101559050503373ffffffffffffffffffffffffffffffffffffffff167f20b3fc91390f6ceba342f697a9490734680fd3556633f40efa146f1dbe79d05f82604051610a6f9190610c5b565b60405180910390a250565b60056020528060005260406000206000915090508060000154908060010154905082565b610b3a84848484604051602401610ab894939291906111cd565b6040516020818303038152906040527f8ef3f399000000000000000000000000000000000000000000000000000000007bffffffffffffffffffffffffffffffffffffffffffffffffffffffff19166020820180517bffffffffffffffffffffffffffffffffffffffffffffffffffffffff8381831617835250505050610b40565b50505050565b610b5781610b4f610b5a610b7b565b63ffffffff16565b50565b60006a636f6e736f6c652e6c6f679050600080835160208501845afa505050565b610b86819050919050565b610b8e611219565b565b600081519050919050565b600082825260208201905092915050565b60005b83811015610bca578082015181840152602081019050610baf565b60008484015250505050565b6000601f19601f8301169050919050565b6000610bf282610b90565b610bfc8185610b9b565b9350610c0c818560208601610bac565b610c1581610bd6565b840191505092915050565b60006020820190508181036000830152610c3a8184610be7565b905092915050565b6000819050919050565b610c5581610c42565b82525050565b6000602082019050610c706000830184610c4c565b92915050565b600080fd5b600073ffffffffffffffffffffffffffffffffffffffff82169050919050565b6000610ca682610c7b565b9050919050565b610cb681610c9b565b8114610cc157600080fd5b50565b600081359050610cd381610cad565b92915050565b600060208284031215610cef57610cee610c76565b5b6000610cfd84828501610cc4565b91505092915050565b610d0f81610c9b565b82525050565b6000602082019050610d2a6000830184610d06565b92915050565b610d3981610c42565b8114610d4457600080fd5b50565b600081359050610d5681610d30565b92915050565b60008060408385031215610d7357610d72610c76565b5b6000610d8185828601610cc4565b9250506020610d9285828601610d47565b9150509250929050565b600060208284031215610db257610db1610c76565b5b6000610dc084828501610d47565b91505092915050565b6000604082019050610dde6000830185610c4c565b610deb6020830184610c4c565b9392505050565b7f4e487b7100000000000000000000000000000000000000000000000000000000600052602260045260246000fd5b60006002820490506001821680610e3957607f821691505b602082108103610e4c57610e4b610df2565b5b50919050565b7f4e6f206465706f73697420666f756e6400000000000000000000000000000000600082015250565b6000610e88601083610b9b565b9150610e9382610e52565b602082019050919050565b60006020820190508181036000830152610eb781610e7b565b9050919050565b7f4e487b7100000000000000000000000000000000000000000000000000000000600052601160045260246000fd5b6000610ef882610c42565b9150610f0383610c42565b9250828203905081811115610f1b57610f1a610ebe565b5b92915050565b7f4e487b7100000000000000000000000000000000000000000000000000000000600052601260045260246000fd5b6000610f5b82610c42565b9150610f6683610c42565b925082610f7657610f75610f21565b5b828204905092915050565b6000610f8c82610c42565b9150610f9783610c42565b9250828202610fa581610c42565b91508282048414831517610fbc57610fbb610ebe565b5b5092915050565b6000610fce82610c42565b9150610fd983610c42565b9250828201905080821115610ff157610ff0610ebe565b5b92915050565b7f4e6f7420656e6f75676820746f6b656e73000000000000000000000000000000600082015250565b600061102d601183610b9b565b915061103882610ff7565b602082019050919050565b6000602082019050818103600083015261105c81611020565b9050919050565b7f416d6f756e74206d7573742062652067726561746572207468616e2030000000600082015250565b6000611099601d83610b9b565b91506110a482611063565b602082019050919050565b600060208201905081810360008301526110c88161108c565b9050919050565b7f496e73756666696369656e742062616c616e6365000000000000000000000000600082015250565b6000611105601483610b9b565b9150611110826110cf565b602082019050919050565b60006020820190508181036000830152611134816110f8565b9050919050565b7f4578697374696e67206465706f736974206d757374206265207769746864726160008201527f776e206669727374000000000000000000000000000000000000000000000000602082015250565b6000611197602883610b9b565b91506111a28261113b565b604082019050919050565b600060208201905081810360008301526111c68161118a565b9050919050565b600060808201905081810360008301526111e78187610be7565b90506111f66020830186610d06565b6112036040830185610d06565b6112106060830184610c4c565b95945050505050565b7f4e487b7100000000000000000000000000000000000000000000000000000000600052605160045260246000fdfe5472616e7366657272696e672066726f6d20257320746f20257320257320746f6b656e73a2646970667358221220bd63ba51e4d7c4da02a47bbba7769e9ca89cbe04494a6cf18b9942ad424c51d864736f6c634300081b0033",
  "linkReferences": {},
  "deployedLinkReferences": {}
}